:100000000C942A000C9447000C9447000C94470071
:100010000C9447000C9447000C9447000C94470044
:100020000C9447000C9447000C9447000C94470034
:100030000C9447000C9466000C9447000C94470005
:100040000C9447000C9447000C9447000C94470014
:100050000C94470011241FBECFE5D8E0DEBFCDBF12
:1000600010E0A0E6B0E0E2E9F1E002C005900D92F8
:10007000A036B107D9F710E0A0E6B0E001C01D92AC
:10008000A136B107E1F70E9455000C94C8000C940A
:100090000000539A80B5866880BD10BC87E689B998
:1000A0008AB180698AB9789408958FEF84BB15BAB4
:1000B0000E944900FFCF5D9BFECF8CB980E090E0AD
:1000C00008955F9BFECF8CB1992708951F920F92E0
:1000D0000FB60F9211248F939F939CB18091600073
:1000E0008130E1F485B3913051F0913028F09230B5
:1000F00049F0933059F408C08F77806607C08F7538
:10010000806404C08F7102C08F79806885BB5D9B5D
:10011000FECF81E08CB91092600033C0913019F0AD
:10012000923049F506C0909360005D9BFECF1CB8ED
:1001300028C085B3829586958770823079F08330A8
:1001400018F4882369F006C0833031F0843011F44C
:1001500083E007C08FEF05C080E003C081E001C0ED
:1001600082E05D9BFECF1CB85D9BFECF8CB9809575
:100170005D9BFECF05C0109260005D9BFECF8FEFB0
:100180008CB99F918F910F900FBE0F901F90189573
:02019000FFCF9F
:00000001FF
