:1000000012C02CC02BC02AC029C028C027C026C0BF
:1000100025C024C023C035C021C020C01FC01EC0C1
:100020001DC01CC01BC011241FBECFE5D4E0DEBF25
:10003000CDBF10E0A0E6B0E0E8E5F1E002C0059039
:100040000D92A636B107D9F710E0A6E6B0E001C0E0
:100050001D92A736B107E1F778D07CC0D1CF539A73
:1000600080B5866880BD10BC87E689B98AB1806991
:100070008AB9789408955D9BFECF8CB980E090E0BA
:1000800008951F920F920FB60F9211242F933F9352
:100090004F935F936F937F938F939F93AF93BF9390
:1000A000CF93EF93FF939CB1809166008130C9F4A8
:1000B00085B3913049F028F0923049F0933059F4EB
:1000C00008C0877F866007C0857F846004C0817F09
:1000D00002C0897F886085BB81E0CDDF1092660019
:1000E0001EC0913019F09230B1F404C090936600B4
:1000F00080E014C0E5B3E695E53028F4F0E0E05A7E
:10010000FF4FC08101C0CFEF80E0B5DF8C2FB3DFA0
:100110008C2F809503C0109266008FEFACDFFF91AB
:10012000EF91CF91BF91AF919F918F917F916F91FF
:100130005F914F913F912F910F900FBE0F901F90A5
:1001400018955F9BFECF8CB108958FEF84BB15BAD5
:0801500086DFFFCFF894FFCF1A
:0601580002FF010003009C
:00000001FF
