:100000000C942A000C9447000C9447000C94470071
:100010000C9447000C9447000C9447000C94470044
:100020000C9447000C9447000C9447000C94470034
:100030000C9447000C9455000C9447000C94470016
:100040000C9447000C9447000C9447000C94470014
:100050000C94470011241FBECFE5D8E0DEBFCDBF12
:1000600010E0A0E6B0E0E0E4F1E002C005900D92FF
:10007000A036B107D9F710E0A0E6B0E001C01D92AC
:10008000A136B107E1F70E947E000C949F000C940A
:100090000000539A80B5866880BD10BC89E189B99B
:1000A0008AB180698AB9789408951F920F920FB629
:1000B0000F9211248F938CB18FEF85BB8F910F908E
:1000C0000FBE0F901F9018955D9BFECF8CB980E0FE
:1000D00090E008955F9BFECF8CB19927089508C0EA
:1000E00000002F5F2832E1F73F5F303521F40197A0
:1000F000009719F030E020E0F3CF08958FEF84BB34
:100100000E9449005D9BFECF88E68CB95D9BFECFC7
:1001100081E68CB95D9BFECF8CE68CB95D9BFECFF2
:100120008CE68CB95D9BFECF8FE68CB95D9BFECFD4
:1001300080E28CB988EC90E00E946F00E3CFFFCFA3
:00000001FF
